:100000000C942A000C94C30C0C94F60C0C94290D3F
:100010000C9418110C94E5100C94B2100C947F10F1
:100020000C944C100C9419100C94E60F0C94B30F14
:100030000C9447000C9447000C9447000C94470024
:100040000C9447000C9447000C9447000C94470014
:100050000C94470011241FBECFE5D8E0DEBFCDBF12
:1000600011E0A8E6B1E001C01D92AB39B107E1F79C
:1000700011E0A0E6B0E0E8EBF4E302C005900D92D9
:10008000A836B107D9F70E948D130C945A1A0C9414
:100090000000EF92FF920F931F937B018C0120E0F1
:1000A00030E040E05FE40E94F50388238CF0C80153
:1000B000B70120E030E040E05FE40E94C1010E940F
:1000C00055049B01AC01205030404040504806C0D0
:1000D000C801B7010E9455049B01AC01B901CA01D6
:1000E0001F910F91FF90EF900895A0E0B0E0EBE733
:1000F000F0E00C94231ADC012B01FA019C91923060
:1001000008F439C1EB018881823008F433C194309E
:1001100069F4843009F02FC111969C91119789815F
:10012000981709F428C1A0E6B0E025C1843009F48D
:1001300021C18230A9F4923009F01DC19A01AD01AC
:1001400088E0EA010990AE01E90109929E0181501F
:10015000C1F7E201898111969C918923818308C1AD
:10016000923009F407C112962D903C901397EB0141
:100170008A819B811496AD90BD90CD90DC901797AD
:10018000EC80FD800E811F819101281B390BB90184
:1001900037FF04C066277727621B730B6032710537
:1001A0000CF061C0121613066CF537014801062EDB
:1001B00004C096948794779467940A94D2F721E0C8
:1001C00030E040E050E004C0220F331F441F551FB1
:1001D0006A95D2F721503040404050402E213F21B7
:1001E00040235123211531054105510521F021E01E
:1001F00030E040E050E079018A01E628F72808293C
:1002000019293CC0232BD1F1260E371E350146019A
:10021000062E04C096948794779467940A94D2F734
:1002200021E030E040E050E004C0220F331F441FC3
:10023000551F6A95D2F721503040404050402A2146
:100240003B214C215D21211531054105510521F04E
:1002500021E030E040E050E059016A01A628B728CB
:10026000C828D9280BC0821593052CF01C01AA249C
:10027000BB24650103C0EE24FF24870111969C91E5
:10028000D20111968C91981709F445C0992339F041
:10029000A80197012A193B094C095D0906C0A6016E
:1002A00095012E193F09400B510B57FD08C01182D3
:1002B0003382228224833583468357831DC081E0A5
:1002C00081833382228288279927DC01821B930B4A
:1002D000A40BB50B84839583A683B7830DC0220F2F
:1002E000331F441F551F24833583468357838281E0
:1002F000938101979383828324813581468157813D
:10030000DA01C9010197A109B1098F5F9F4FAF4F72
:10031000BF4328F30BC0918333822282EA0CFB1C7B
:100320000C1D1D1DE482F5820683178383E0808304
:10033000248135814681578157FF1AC0C901AA27F8
:1003400097FDA095BA2F81709070A070B0705695EF
:10035000479537952795822B932BA42BB52B848318
:100360009583A683B7838281938101969383828349
:10037000DF0101C0D201CD01CDB7DEB7E2E10C94BF
:100380003F1AA0E2B0E0E7ECF1E00C942F1A698389
:100390007A838B839C832D833E834F835887E9E048
:1003A000EE2EF12CEC0EFD1ECE010196B7010E943F
:1003B00046068E010F5E1F4FCE010596B8010E94C2
:1003C00046068A8991E089278A8BC701B801AE0168
:1003D000475E5F4F0E9475000E947105A096E6E09F
:1003E0000C944B1AA0E2B0E0E8EFF1E00C942F1A65
:1003F00069837A838B839C832D833E834F835887C5
:10040000F9E0EF2EF12CEC0EFD1ECE010196B701A6
:100410000E9446068E010F5E1F4FCE010596B80161
:100420000E944606C701B801AE01475E5F4F0E94B9
:1004300075000E947105A096E6E00C944B1AA0E2AC
:10044000B0E0E5E2F2E00C94231A69837A838B83AF
:100450009C832D833E834F835887CE010196BE0136
:10046000675F7F4F0E944606CE010596BE016F5E14
:100470007F4F0E9446069985923088F089898230A4
:10048000C8F0943019F4823051F404C0843029F457
:10049000923081F480E690E0C6C0923049F420E0CA
:1004A0009A858A89981321E02A87CE010996BBC0D4
:1004B000823049F420E09A858A89981321E02A8BBA
:1004C000CE014196B0C02D843E844F8458886D88FB
:1004D0007E888F88988CEE24FF248701AA24BB2471
:1004E000650140E050E060E070E0E0E0F0E0C10174
:1004F00081709070892BE9F0E60CF71C081D191D1E
:100500009A01AB012A0D3B1D4C1D5D1D80E090E062
:10051000A0E0B0E0E614F7040805190520F481E036
:1005200090E0A0E0B0E0BA01A901480F591F6A1F8E
:100530007B1FAA0CBB1CCC1CDD1C97FE08C081E0F5
:1005400090E0A0E0B0E0A82AB92ACA2ADB2A3196B6
:10055000E032F10549F0660C771C881C991C569412
:10056000479437942794C3CFFA85EA892B893C892D
:100570008B859C85280F391F2E5F3F4F17C0CA01FE
:1005800081709070892B61F016950795F794E79428
:1005900080E090E0A0E0B0E8E82AF92A0A2B1B2BC3
:1005A00076956795579547952F5F3F4F77FDE7CF36
:1005B0000CC0440F551F661F771F17FD4160EE0CDE
:1005C000FF1C001F111F21503040403090E05907A0
:1005D00090E0690790E4790760F32B8F3C8FDB0193
:1005E000CA018F779070A070B07080349105A1051A
:1005F000B10561F447FD0AC0E114F10401051105DC
:1006000029F0405C5F4F6F4F7F4F40781A8EFE1786
:1006100011F081E08A8F4D8F5E8F6F8F78A383E01A
:10062000898FCE0149960E947105A096E2E10C9453
:100630003F1AA8E1B0E0EFE1F3E00C942B1A6983D4
:100640007A838B839C832D833E834F835887B9E0C5
:10065000EB2EF12CEC0EFD1ECE010196B7010E948F
:1006600046068E010F5E1F4FCE010596B8010E940F
:1006700046062985223008F47EC03989323010F4CC
:10068000B8017CC08A859A8989278A87243011F02D
:10069000223031F4231709F06EC060E670E06EC0BE
:1006A000343039F41D861E861F86188A1C861B86E8
:1006B00004C0323021F484E08987B7015FC02B8504
:1006C0003C858B899C89281B390B3C872B87ED84C3
:1006D000FE840F851889AD88BE88CF88D88CEA142F
:1006E000FB040C051D0540F4EE0CFF1C001F111F40
:1006F000215030403C872B8720E030E040E050E044
:1007000080E090E0A0E0B0E460E070E0EA14FB0478
:100710000C051D0540F0282B392B4A2B5B2BEA18C2
:10072000FB080C091D09B695A79597958795EE0CC2
:10073000FF1C001F111F6F5F7F4F6F31710531F775
:10074000DA01C9018F779070A070B0708034910584
:10075000A105B10561F427FD0AC0E114F10401050A
:10076000110529F0205C3F4F4F4F5F4F20782D87B8
:100770003E874F87588BBE01675F7F4FCB010E943A
:1007800071056896EAE00C94471AA8E1B0E0EBEC3A
:10079000F3E00C942F1A69837A838B839C832D83D7
:1007A0003E834F83588789E0E82EF12CEC0EFD1E26
:1007B000CE010196B7010E9446068E010F5E1F4FC3
:1007C000CE010596B8010E9446068985823040F028
:1007D0008989823028F0C701B8010E94BE0601C095
:1007E0008FEF6896E6E00C944B1AA8E1B0E0EBEFCF
:1007F000F3E00C942F1A69837A838B839C832D8377
:100800003E834F83588789E0E82EF12CEC0EFD1EC5
:10081000CE010196B7010E9446068E010F5E1F4F62
:10082000CE010596B8010E9446068985823040F0C7
:100830008989823028F0C701B8010E94BE0601C034
:100840008FEF6896E6E00C944B1AA8E1B0E0EBE27B
:10085000F4E00C942F1A69837A838B839C832D8315
:100860003E834F83588789E0E82EF12CEC0EFD1E65
:10087000CE010196B7010E9446068E010F5E1F4F02
:10088000CE010596B8010E9446068985823040F067
:100890008989823028F0C701B8010E94BE0601C0D4
:1008A00081E06896E6E00C944B1AACE0B0E0EBE532
:1008B000F4E00C94331A69837A838B839C83CE0192
:1008C0000196BE016B5F7F4F0E9446068D8182308C
:1008D00061F1823050F1843021F48E81882351F10E
:1008E0002EC02F81388537FD20C06E812F31310514
:1008F0001CF06623F9F023C08EE190E0821B930B7D
:1009000029853A854B855C8504C056954795379572
:1009100027958A95D2F76623B1F05095409530958A
:1009200021953F4F4F4F5F4F0EC020E030E040E039
:1009300050E009C02FEF3FEF4FEF5FE704C020E02A
:1009400030E040E050E8B901CA012C96E2E00C9496
:100950004F1AA8E0B0E0EFEAF4E00C942B1A7B0108
:100960008C01611571058105910519F482E0898377
:1009700060C083E089838EE1C82ED12CDC82CB82DB
:10098000ED82FE820F831887C801B7010E942205FD
:10099000FC013197F7FF3BC0222733272E1B3F0B6B
:1009A00057016801022E04C0D694C794B794A79447
:1009B0000A94D2F740E050E060E070E081E090E01F
:1009C000A0E0B0E004C0880F991FAA1FBB1F2A95A2
:1009D000D2F70197A109B1098E219F21A023B1234C
:1009E0000097A105B10521F041E050E060E070E022
:1009F0004A295B296C297D294D835E836F83788723
:100A00008EE190E08E1B9F0B9C838B8312C03097EE
:100A100081F00E2E04C0EE0CFF1C001F111F0A9463
:100A2000D2F7ED82FE820F831887CE1ADF0ADC82AE
:100A3000CB821A82CE0101960E9471052896EAE0C7
:100A40000C94471AEF92FF920F931F937B018C0136
:100A500080E0E81680E0F80681E0080780E01807EB
:100A600088F48FEFE816F1040105110531F028F044
:100A700088E090E0A0E0B0E017C080E090E0A0E067
:100A8000B0E012C080E0E81680E0F80680E00807D9
:100A900081E0180728F088E190E0A0E0B0E004C011
:100AA00080E190E0A0E0B0E020E230E040E050E003
:100AB000281B390B4A0B5B0B04C016950795F7945E
:100AC000E7948A95D2F7F701E859FF4F8081281BF8
:100AD000310941095109C9011F910F91FF90EF9010
:100AE0000895DF92EF92FF920F931F93FC01E48031
:100AF000F58006811781D1808081823048F480E0C2
:100B000090E0A0E1B0E0E82AF92A0A2B1B2BA5C04F
:100B1000843009F49FC0823021F4EE24FF24870141
:100B200005C0E114F1040105110519F4E0E0F0E05D
:100B300096C0628173819FEF623879070CF05BC0C9
:100B400022E83FEF261B370B2A3131052CF020E03D
:100B500030E040E050E02AC0B801A701022E04C0F6
:100B600076956795579547950A94D2F781E090E07E
:100B7000A0E0B0E004C0880F991FAA1FBB1F2A95F0
:100B8000D2F70197A109B1098E219F21A023B1239A
:100B90000097A105B10521F081E090E0A0E0B0E070
:100BA0009A01AB01282B392B4A2B5B2BDA01C901A7
:100BB0008F779070A070B07080349105A105B10559
:100BC00039F427FF09C0205C3F4F4F4F5F4F04C0EF
:100BD000215C3F4F4F4F5F4FE0E0F0E02030A0E05E
:100BE0003A07A0E04A07A0E45A0710F0E1E0F0E07D
:100BF00079018A0127C06038710564F5FB01E1586D
:100C0000FF4FD801C7018F779070A070B07080340B
:100C10009105A105B10539F4E7FE0DC080E490E02F
:100C2000A0E0B0E004C08FE390E0A0E0B0E0E80E08
:100C3000F91E0A1F1B1F17FF05C016950795F7948D
:100C4000E794319687E016950795F794E7948A958F
:100C5000D1F705C0EE24FF248701EFEFF0E06E2FFF
:100C6000679566276795902F9F77D794DD24D79453
:100C70008E2F8695492F462B582F5D29B701CA0123
:100C80001F910F91FF90EF90DF900895FC01DB0121
:100C9000408151812281622F6F7770E0221F2227CD
:100CA000221F9381892F880F822B282F30E0991FD4
:100CB0009927991F11969C93119721153105A9F534
:100CC000411551056105710511F482E037C082E8D4
:100CD0009FEF13969C938E9312979A01AB0167E056
:100CE000220F331F441F551F6A95D1F783E08C9361
:100CF0000DC0220F331F441F551F12968D919C91DA
:100D00001397019713969C938E931297203080E04F
:100D1000380780E0480780E4580758F314962D936D
:100D20003D934D935C93179708952F3F310579F4C8
:100D3000411551056105710519F484E08C930895FE
:100D400064FF03C081E08C9312C01C9210C02F5727
:100D5000304013963C932E93129783E08C9387E058
:100D6000440F551F661F771F8A95D1F7706414963C
:100D70004D935D936D937C93179708951F93DC01BA
:100D8000FB019C91923008F447C08081823008F4C6
:100D900043C0943051F411961C91843099F58181AF
:100DA000682F70E0611B71093FC0843021F09230E0
:100DB00031F48230B9F18181882389F12DC01196F7
:100DC0001C9111978230F1F081811817D9F4129695
:100DD0002D913C911397828193818217930794F010
:100DE00028173907BCF014968D919D910D90BC91F8
:100DF000A02D2481358146815781281739074A075C
:100E00005B0718F4112341F00AC082179307A40767
:100E1000B50740F4112319F061E070E005C06FEFF1
:100E20007FEF02C060E070E0CB011F910895DF9377
:100E3000CF93CDB7DEB7EAE3F0E08FEF8083E7E34F
:100E4000F0E01082E4E3F0E081E08083E1E3F0E0B1
:100E500081E88083EBE3F0E01082E8E3F0E01082C9
:100E6000E5E3F0E01082E2E3F0E01082CF91DF9161
:100E70000895DF93CF9300D000D000D0CDB7DEB778
:100E80008A836B834C8381E089838A81853008F073
:100E9000EDC08B81883008F0E9C08C81882321F077
:100EA0008C81813009F0E2C08A81282F30E03E83B6
:100EB0002D838D819E818230910509F448C02D815A
:100EC0003E812330310534F48D819E81813091053E
:100ED00071F0CDC02D813E812330310509F467C00A
:100EE0008D819E818430910509F491C0C0C08C81B0
:100EF0008823A9F4AAE3B0E0EAE3F0E08081482F78
:100F00008B81282F30E081E090E0022E02C0880F14
:100F1000991F0A94E2F7809584238C93A8C08C8152
:100F2000813009F0A4C0AAE3B0E0EAE3F0E08081F8
:100F3000482F8B81282F30E081E090E0022E02C004
:100F4000880F991F0A94E2F7842B8C9390C08C81B0
:100F50008823A9F4A7E3B0E0E7E3F0E08081482F1D
:100F60008B81282F30E081E090E0022E02C0880FB4
:100F7000991F0A94E2F7809584238C9378C08C8122
:100F8000813009F074C0A7E3B0E0E7E3F0E08081CE
:100F9000482F8B81282F30E081E090E0022E02C0A4
:100FA000880F991F0A94E2F7842B8C9360C08C8180
:100FB0008823A9F4A4E3B0E0E4E3F0E08081482FC3
:100FC0008B81282F30E081E090E0022E02C0880F54
:100FD000991F0A94E2F7809584238C9348C08C81F2
:100FE000813009F044C0A4E3B0E0E4E3F0E08081A4
:100FF000482F8B81282F30E081E090E0022E02C044
:10100000880F991F0A94E2F7842B8C9330C08C814F
:101010008823A9F4A1E3B0E0E1E3F0E08081482F68
:101020008B81282F30E081E090E0022E02C0880FF3
:10103000991F0A94E2F7809584238C9318C08C81C1
:101040008130A9F4A1E3B0E0E1E3F0E08081482F32
:101050008B81282F30E081E090E0022E02C0880FC3
:10106000991F0A94E2F7842B8C9301C0198289811D
:1010700026960FB6F894DEBF0FBECDBFCF91DF919D
:101080000895DF93CF9300D000D000D0CDB7DEB766
:101090008A836B834C8381E089838A81853008F061
:1010A000EDC08B81883008F0E9C08C81882321F065
:1010B0008C81813009F0E2C08A81282F30E03E83A4
:1010C0002D838D819E818230910509F448C02D8148
:1010D0003E812330310534F48D819E81813091052C
:1010E00071F0CDC02D813E812330310509F467C0F8
:1010F0008D819E818430910509F491C0C0C08C819E
:101100008823A9F4ABE3B0E0EBE3F0E08081482F63
:101110008B81282F30E081E090E0022E02C0880F02
:10112000991F0A94E2F7809584238C93A8C08C8140
:10113000813009F0A4C0ABE3B0E0EBE3F0E08081E4
:10114000482F8B81282F30E081E090E0022E02C0F2
:10115000880F991F0A94E2F7842B8C9390C08C819E
:101160008823A9F4A8E3B0E0E8E3F0E08081482F09
:101170008B81282F30E081E090E0022E02C0880FA2
:10118000991F0A94E2F7809584238C9378C08C8110
:10119000813009F074C0A8E3B0E0E8E3F0E08081BA
:1011A000482F8B81282F30E081E090E0022E02C092
:1011B000880F991F0A94E2F7842B8C9360C08C816E
:1011C0008823A9F4A5E3B0E0E5E3F0E08081482FAF
:1011D0008B81282F30E081E090E0022E02C0880F42
:1011E000991F0A94E2F7809584238C9348C08C81E0
:1011F000813009F044C0A5E3B0E0E5E3F0E0808190
:10120000482F8B81282F30E081E090E0022E02C031
:10121000880F991F0A94E2F7842B8C9330C08C813D
:101220008823A9F4A2E3B0E0E2E3F0E08081482F54
:101230008B81282F30E081E090E0022E02C0880FE1
:10124000991F0A94E2F7809584238C9318C08C81AF
:101250008130A9F4A2E3B0E0E2E3F0E08081482F1E
:101260008B81282F30E081E090E0022E02C0880FB1
:10127000991F0A94E2F7842B8C9301C0198289810B
:1012800026960FB6F894DEBF0FBECDBFCF91DF918B
:101290000895DF93CF93CDB7DEB728970FB6F894B4
:1012A000DEBF0FBECDBF8B836C835E834D8381E039
:1012B0008A838B81853008F0ADC08C81883008F03E
:1012C000A9C08D819E81009709F4A4C08B81282F2D
:1012D00030E038872F834F81588542305105C9F15E
:1012E0008F8198858330910534F42F8138852130A2
:1012F000310571F090C04F8158854330510509F494
:1013000049C08F8198858430910509F463C083C0FA
:10131000E9E3F0E08081282F30E08C81882F90E095
:10132000A90102C0559547958A95E2F7CA018170D7
:1013300089838981882321F4ED81FE8110826BC02D
:101340008981813009F067C0ED81FE8181E0808371
:1013500062C0E6E3F0E08081282F30E08C81882FA6
:1013600090E0A90102C0559547958A95E2F7CA0118
:10137000817089838981882321F4ED81FE81108227
:101380004AC08981813009F046C0ED81FE8181E04B
:10139000808341C0E3E3F0E08081282F30E08C813E
:1013A000882F90E0A90102C0559547958A95E2F7EC
:1013B000CA01817089838981882321F4ED81FE81AE
:1013C000108229C08981813031F5ED81FE8181E073
:1013D000808321C0E0E3F0E08081282F30E08C8121
:1013E000882F90E0A90102C0559547958A95E2F7AC
:1013F000CA01817089838981882321F4ED81FE816E
:10140000108209C08981813031F4ED81FE8181E053
:10141000808301C01A828A8128960FB6F894DEBFB5
:101420000FBECDBFCF91DF910895DF93CF9300D052
:1014300000D00F92CDB7DEB78A836B8381E08983BA
:101440008A818530D0F58B81882319F08B8181309A
:10145000A1F58A81282F30E03D832C838C819D81EA
:1014600082309105D9F02C813D812330310534F44F
:101470008C819D818130910561F020C02C813D815E
:101480002330310581F08C819D818430910581F07C
:1014900015C0EAE3F0E08B81808310C0E7E3F0E061
:1014A0008B8180830BC0E4E3F0E08B81808306C0F6
:1014B000E7E3F0E08B81808301C0198289810F907E
:1014C0000F900F900F900F90CF91DF910895DF93C1
:1014D000CF9300D000D00F92CDB7DEB78A836B8355
:1014E00081E089838A81853098F58A81282F30E0D0
:1014F0003D832C838C819D8182309105D9F02C8194
:101500003D812330310534F48C819D8181309105FA
:1015100061F01EC02C813D812330310581F08C812A
:101520009D818430910581F013C0EBE3F0E08B8165
:1015300080830EC0E8E3F0E08B81808309C0E5E39F
:10154000F0E08B81808304C0E2E3F0E08B81808354
:1015500089810F900F900F900F900F90CF91DF9196
:101560000895DF93CF9300D000D000D0CDB7DEB781
:101570008A837C836B8381E089838A81853008F04C
:1015800040C08B819C810097E1F18A81282F30E057
:101590003E832D838D819E8182309105E9F02D81DE
:1015A0003E812330310534F48D819E818130910557
:1015B00061F028C02D813E8123303105A1F08D815D
:1015C0009E8184309105B1F01DC0E9E3F0E0808197
:1015D000EB81FC81808316C0E6E3F0E08081EB8143
:1015E000FC8180830FC0E3E3F0E08081EB81FC812C
:1015F000808308C0E0E3F0E08081EB81FC818083A0
:1016000001C01982898126960FB6F894DEBF0FBEFD
:10161000CDBFCF91DF910895DF93CF9300D000D05D
:10162000CDB7DEB79B838A836C8381E089838C810D
:10163000833088F48A819B81009769F08C81882FA0
:1016400090E0880F991FFC01E859FE4F8A819B8129
:101650009183808301C0198289810F900F900F9030
:101660000F90CF91DF910895DF93CF93CDB7DEB781
:101670002B970FB6F894DEBF0FBECDBF8A836B8366
:1016800081E089838A81282F30E03B872A878A85F9
:101690009B858130910509F485C02A853B852230E0
:1016A000310509F4F9C08A859B85009709F023C1AB
:1016B0008B81282F30E0398728878885998581306C
:1016C000910561F128853985223031052CF4888512
:1016D0009985009769F064C02885398522303105E5
:1016E00099F1888599858330910509F443C058C0E4
:1016F000A5E5B0E0E5E5F0E0808182608C93A5E5AA
:10170000B0E0E5E5F0E0808181608C93ABE5B0E08E
:10171000EBE5F0E0808180648C93EEC0A5E5B0E05D
:10172000E5E5F0E0808182608C93A5E5B0E0E5E539
:10173000F0E080818E7F8C93ABE5B0E0EBE5F0E0EC
:10174000808180648C93D8C0A5E5B0E0E5E5F0E049
:10175000808181608C93A5E5B0E0E5E5F0E08081D3
:101760008D7F8C93ABE5B0E0EBE5F0E080818064A9
:101770008C93C2C0A5E5B0E0E5E5F0E080818E7F06
:101780008C93A5E5B0E0E5E5F0E080818D7F8C935A
:10179000ABE5B0E0EBE5F0E0808180648C93ACC019
:1017A0001982AAC08B81282F30E03F832E838E813F
:1017B0009F818130910561F12E813F812230310579
:1017C0002CF48E819F81009769F064C02E813F8147
:1017D0002230310599F18E819F818330910509F482
:1017E00043C058C0A5E5B0E0E5E5F0E08081886041
:1017F0008C93A5E5B0E0E5E5F0E0808184608C9312
:10180000ABE5B0E0EBE5F0E0808180688C9374C0DC
:10181000A5E5B0E0E5E5F0E0808188608C93A5E582
:10182000B0E0E5E5F0E080818B7F8C93ABE5B0E044
:10183000EBE5F0E0808180688C935EC0A5E5B0E0C8
:10184000E5E5F0E0808184608C93A5E5B0E0E5E516
:10185000F0E08081877F8C93ABE5B0E0EBE5F0E0D2
:10186000808180688C9348C0A5E5B0E0E5E5F0E0B4
:101870008081877F8C93A5E5B0E0E5E5F0E080818D
:101880008B7F8C93ABE5B0E0EBE5F0E08081806886
:101890008C9332C0198230C08B81282F30E03D8379
:1018A0002C838C819D81009731F02C813D812130EA
:1018B000310581F01EC0A4E5B0E0E4E5F0E08081F0
:1018C00080648C93ABE5B0E0EBE5F0E08081806272
:1018D0008C9312C0A4E5B0E0E4E5F0E080818F7B5A
:1018E0008C93ABE5B0E0EBE5F0E0808180628C9317
:1018F00003C0198201C0198289812B960FB6F89412
:10190000DEBF0FBECDBFCF91DF910895DF93CF93A0
:1019100000D000D0CDB7DEB78A8381E089838A8189
:10192000282F30E03C832B838B819C818130910573
:1019300089F02B813C8122303105A1F08B819C8183
:101940000097C1F4ABE5B0E0EBE5F0E080818F7B80
:101950008C9311C0ABE5B0E0EBE5F0E080818F77D0
:101960008C9309C0ABE5B0E0EBE5F0E080818F7DC2
:101970008C9301C0198289810F900F900F900F9066
:10198000CF91DF9108951F920F920FB60F921124FD
:101990002F933F934F935F936F937F938F939F9377
:1019A000AF93BF93EF93FF93DF93CF93CDB7DEB7A2
:1019B0008091680190916901009729F0E091680198
:1019C000F09169010995CF91DF91FF91EF91BF915E
:1019D000AF919F918F917F916F915F914F913F91C7
:1019E0002F910F900FBE0F901F9018951F920F927E
:1019F0000FB60F9211242F933F934F935F936F93E2
:101A00007F938F939F93AF93BF93EF93FF93DF9356
:101A1000CF93CDB7DEB780916A0190916B010097AB
:101A200029F0E0916A01F0916B010995CF91DF9166
:101A3000FF91EF91BF91AF919F918F917F916F91A6
:101A40005F914F913F912F910F900FBE0F901F907C
:101A500018951F920F920FB60F9211242F933F9358
:101A60004F935F936F937F938F939F93AF93BF93A6
:101A7000EF93FF93DF93CF93CDB7DEB780916C01E7
:101A800090916D01009729F0E0916C01F0916D014A
:101A90000995CF91DF91FF91EF91BF91AF919F9108
:101AA0008F917F916F915F914F913F912F910F9007
:101AB0000FBE0F901F901895DF93CF93CDB7DEB771
:101AC000AFE5B0E0EFE5F0E0808180688C93CF91E6
:101AD000DF910895DF93CF93CDB7DEB7AFE5B0E0E8
:101AE000EFE5F0E080818F778C93CF91DF910895BF
:101AF000DF93CF93CDB7DEB7A3E5B0E0E3E5F0E049
:101B000080818F7B8C93A3E5B0E0E3E5F0E08081FA
:101B1000877F8C93E2E5F0E080EC8083A9E5B0E07C
:101B2000E9E5F0E080818E7F8C93A3E5B0E0E3E50A
:101B3000F0E08081887F8C93A3E5B0E0E3E5F0E0FE
:101B4000808182608C93CF91DF910895DF93CF9352
:101B5000CDB7DEB7AFE4B0E0EFE4F0E080818E7F98
:101B60008C93AFE4B0E0EFE4F0E080818D7F8C9364
:101B7000AEE4B0E0EEE4F0E08081877F8C93AEE4E9
:101B8000B0E0EEE4F0E080818F7E8C93ECE4F0E056
:101B900011821082A9E5B0E0E9E5F0E080818B7F59
:101BA0008C93AEE4B0E0EEE4F0E08081887F8C932B
:101BB000AEE4B0E0EEE4F0E0808182608C93CF91FF
:101BC000DF910895DF93CF93CDB7DEB7A5E4B0E002
:101BD000E5E4F0E080818F7B8C93A5E4B0E0E5E460
:101BE000F0E0808188608C93E3E4F0E08DE780830F
:101BF000A9E5B0E0E9E5F0E0808180688C93A5E498
:101C0000B0E0E5E4F0E08081887F8C93A5E4B0E06B
:101C1000E5E4F0E0808183608C93CF91DF910895BB
:101C2000DF93CF930F92CDB7DEB78983E2E5F0E083
:101C3000898180830F90CF91DF910895DF93CF93B7
:101C400000D0CDB7DEB79A838983ECE4F0E08981D8
:101C50009A81918380830F900F90CF91DF910895A7
:101C6000DF93CF930F92CDB7DEB78983E4E4F0E042
:101C7000898180830F90CF91DF910895DF93CF9377
:101C80000F92CDB7DEB78983ECE5F0E089818083E0
:101C90000F90CF91DF910895DF93CF9300D0CDB710
:101CA000DEB79A838983EAE4F0E089819A8191839F
:101CB00080830F900F90CF91DF910895DF93CF93A2
:101CC00000D0CDB7DEB79A838983E8E4F0E089815C
:101CD0009A81918380830F900F90CF91DF91089527
:101CE000DF93CF930F92CDB7DEB78983E3E4F0E0C3
:101CF000898180830F90CF91DF910895DF93CF93F7
:101D000000D0CDB7DEB79A838983E6E4F0E089811D
:101D10009A81918380830F900F90CF91DF910895E6
:101D2000DF93CF93CDB7DEB7E2E5F0E08081CF91CE
:101D3000DF910895DF93CF93CDB7DEB7ECE4F0E009
:101D400080819181CF91DF910895DF93CF93CDB7BB
:101D5000DEB7E4E4F0E08081CF91DF910895DF9376
:101D6000CF9300D0CDB7DEB79A838983EAE4F0E061
:101D700089819A81918380830F900F90CF91DF9119
:101D80000895DF93CF93CDB7DEB7AEE4B0E0EEE4D5
:101D9000F0E0808180648C93A9E5B0E0E9E5F0E0B3
:101DA000808180628C93CF91DF910895DF93CF93F0
:101DB00000D0CDB7DEB78A8381E089838A81813004
:101DC00041F4AEE4B0E0EEE4F0E0808180648C9316
:101DD0000CC08A81882341F4AEE4B0E0EEE4F0E088
:101DE00080818F7B8C9301C0198289810F900F9025
:101DF000CF91DF910895DF93CF93CDB7DEB7A9E5FB
:101E0000B0E0E9E5F0E0808180628C93CF91DF91D2
:101E10000895DF93CF93CDB7DEB7A8E5B0E0E8E54E
:101E2000F0E0808184608C93CF91DF910895DF93FF
:101E3000CF93CDB7DEB7A8E5B0E0E8E5F0E080816C
:101E400080628C93CF91DF910895DF93CF93CDB7CC
:101E5000DEB7A9E5B0E0E9E5F0E080818F7D8C9305
:101E6000CF91DF910895DF93CF93CDB7DEB7A9E58A
:101E7000B0E0E9E5F0E080818B7F8C93CF91DF913A
:101E80000895DF93CF93CDB7DEB7A9E5B0E0E9E5DC
:101E9000F0E0808184608C93CF91DF910895DF938F
:101EA000CF93CDB7DEB7E6E4F0E080819181CF91AA
:101EB000DF910895DF93CF93CDB7DEB7A1E4B0E013
:101EC000E1E4F0E08081887F8C93A1E4B0E0E1E47C
:101ED000F0E0808186608C93CF91DF910895DF934D
:101EE000CF93CDB7DEB7A1E4B0E0E1E4F0E08081CC
:101EF00088608C93CF91DF910895DF93CF93CDB716
:101F0000DEB7A1E4B0E0E1E4F0E0808188618C9389
:101F1000E1E4F0E01082CF91DF910895DF93CF9359
:101F200000D000D0CDB7DEB79B838A836C8381E07D
:101F300089838A819B81009769F08C81882F90E04A
:101F4000880F991FFC01E259FE4F8A819B81918382
:101F5000808301C0198289810F900F900F900F909C
:101F6000CF91DF9108951F920F920FB60F92112417
:101F70002F933F934F935F936F937F938F939F9391
:101F8000AF93BF93EF93FF93DF93CF93CDB7DEB7BC
:101F90008091840190918501009729F0E09184015E
:101FA000F09185010995CF91DF91FF91EF91BF915C
:101FB000AF919F918F917F916F915F914F913F91E1
:101FC0002F910F900FBE0F901F9018951F920F9298
:101FD0000FB60F9211242F933F934F935F936F93FC
:101FE0007F938F939F93AF93BF93EF93FF93DF9371
:101FF000CF93CDB7DEB78091820190918301009796
:1020000029F0E0918201F09183010995CF91DF9150
:10201000FF91EF91BF91AF919F918F917F916F91C0
:102020005F914F913F912F910F900FBE0F901F9096
:1020300018951F920F920FB60F9211242F933F9372
:102040004F935F936F937F938F939F93AF93BF93C0
:10205000EF93FF93DF93CF93CDB7DEB780918001ED
:1020600090918101009729F0E0918001F091810128
:102070000995CF91DF91FF91EF91BF91AF919F9122
:102080008F917F916F915F914F913F912F910F9021
:102090000FBE0F901F9018951F920F920FB60F92C0
:1020A00011242F933F934F935F936F937F938F935D
:1020B0009F93AF93BF93EF93FF93DF93CF93CDB7EE
:1020C000DEB780917E0190917F01009729F0E09129
:1020D0007E01F0917F010995CF91DF91FF91EF9102
:1020E000BF91AF919F918F917F916F915F914F9130
:1020F0003F912F910F900FBE0F901F9018951F9238
:102100000F920FB60F9211242F933F934F935F932B
:102110006F937F938F939F93AF93BF93EF93FF93AF
:10212000DF93CF93CDB7DEB780917C0190917D0195
:10213000009729F0E0917C01F0917D010995CF9104
:10214000DF91FF91EF91BF91AF919F918F917F911F
:102150006F915F914F913F912F910F900FBE0F9014
:102160001F9018951F920F920FB60F9211242F9364
:102170003F934F935F936F937F938F939F93AF930F
:10218000BF93EF93FF93DF93CF93CDB7DEB78091EB
:102190007A0190917B01009729F0E0917A01F0910A
:1021A0007B010995CF91DF91FF91EF91BF91AF91A5
:1021B0009F918F917F916F915F914F913F912F915F
:1021C0000F900FBE0F901F9018951F920F920FB691
:1021D0000F9211242F933F934F935F936F937F93AD
:1021E0008F939F93AF93BF93EF93FF93DF93CF931F
:1021F000CDB7DEB78091780190917901009729F0F1
:10220000E0917801F09179010995CF91DF91FF91EB
:10221000EF91BF91AF919F918F917F916F915F915E
:102220004F913F912F910F900FBE0F901F901895D7
:102230001F920F920FB60F9211242F933F934F933B
:102240005F936F937F938F939F93AF93BF93EF931E
:10225000FF93DF93CF93CDB7DEB780917601909156
:102260007701009729F0E0917601F09177010995C7
:10227000CF91DF91FF91EF91BF91AF919F918F919E
:102280007F916F915F914F913F912F910F900FBE72
:102290000F901F901895DF93CF93CDB7DEB786E5EB
:1022A00093E166E00E948E0F86E493E169E00E946C
:1022B0008E0F0E945C0D0E94A60D0E94C10E0E940E
:1022C000410F80E00E94300E80E090E00E947E0E80
:1022D000CF91DF910895EF92FF920F931F93DF93B9
:1022E000CF93CDB7DEB7A9970FB6F894DEBF0FBE78
:1022F000CDBF99A788A781E08FA388A599A500974E
:1023000009F4B5C184E067E041E00E94410880E043
:1023100090E0A0E2B1E48BA39CA3ADA3BEA36BA10C
:102320007CA18DA19EA12BEA3AEA4AE250E40E94E8
:102330001F02DC01CB018F8F98A3A9A3BAA36F8DD5
:1023400078A189A19AA120E030E040E85FE30E94F3
:10235000250488231CF481E08E8F91C06F8D78A1B5
:1023600089A19AA120E030E04FE753E40E94C50321
:1023700018160CF07BC06BA17CA18DA19EA120E062
:1023800030E04AE754E40E941903DC01CB018A8F54
:102390009B8FAC8FBD8F6A8D7B8D8C8D9D8D20E04A
:1023A00030E04AEF54E40E941F02DC01CB018E8B27
:1023B0009F8BA88FB98F6E897F89888D998D20E03A
:1023C00030E040E85FE30E94250488232CF481E09C
:1023D00090E09D8B8C8B3FC06E897F89888D998D15
:1023E00020E03FEF4FE757E40E94C50318164CF575
:1023F0006A8D7B8D8C8D9D8D20E030E040E251E434
:102400000E941F02DC01CB01BC01CD010E944900EA
:10241000DC01CB019D8B8C8B0FC088EC90E09B8BFB
:102420008A8B8A899B890197F1F79B8B8A8B8C8990
:102430009D8901979D8B8C8B8C899D89009769F76D
:1024400024C06E897F89888D998D0E944900DC01A6
:10245000CB019D8B8C8B8C899D89998B888B8889EE
:1024600099890197F1F7998B888B0FC06F8D78A1AF
:1024700089A19AA10E944900DC01CB018E8F8E8D2B
:102480008F878F858A95F1F78F8784E067E040E03A
:102490000E944108809196018230E0F310929601EB
:1024A00080919001909191017C0100E010E0809179
:1024B000920190919301CC01A0E0B0E02FEF3FEFAB
:1024C00040E050E0BC01CD010E94E219DC01CB01EB
:1024D000A8019701280F391F4A1F5B1F80918E01A9
:1024E00090918F01CC01A0E0B0E079018A01E81A57
:1024F000F90A0A0B1B0BD801C7018093970190932F
:102500009801A0939901B0939A01809197019091BD
:102510009801A0919901B0919A012AE330E040E03E
:1025200050E0BC01CD010E94011ADA01C901E8A501
:10253000F9A580839183A283B383109295011092B1
:102540009401109293011092920110928F011092B7
:102550008E011092910110929001109297011092A9
:1025600098011092990110929A010E94170F0E94EF
:10257000090F0E94C10E0E94410F80E00E94300EA0
:1025800080E090E00E947E0E80E090E0A8E4B3E45A
:102590008B879C87AD87BE876B857C858D859E8567
:1025A00020E030E04AEF54E40E941F02DC01CB013E
:1025B0008F839887A987BA876F81788589859A855F
:1025C00020E030E040E85FE30E94250488232CF4FB
:1025D00081E090E09E838D833FC06F8178858985FF
:1025E0009A8520E03FEF4FE757E40E94C503181695
:1025F0004CF56B857C858D859E8520E030E040E242
:1026000051E40E941F02DC01CB01BC01CD010E94FC
:102610004900DC01CB019E838D830FC088EC90E0E4
:102620009C838B838B819C810197F1F79C838B83A7
:102630008D819E8101979E838D838D819E810097E0
:1026400069F716C06F81788589859A850E9449004F
:10265000DC01CB019E838D838D819E819A8389834A
:1026600089819A810197F1F79A83898301C01FA21A
:102670008FA1A9960FB6F894DEBF0FBECDBFCF9144
:10268000DF911F910F91FF90EF900895DF93CF930B
:10269000CDB7DEB78091940190919501019690930A
:1026A000950180939401CF91DF910895DF93CF93AB
:1026B000CDB7DEB780919601882371F41092950111
:1026C000109294010E944F0F90938F0180938E017E
:1026D00080E00E94D60E19C0809196018130A9F445
:1026E0008091940190919501909393018093920130
:1026F0000E944F0F909391018093900181E00E947E
:10270000D60E0E94250F0E94330F809196018F5F95
:1027100080939601CF91DF9108950F931F93DF93DC
:10272000CF93CDB7DEB7C156D0400FB6F894DEBF19
:102730000FBECDBF0E9417070E944B110E944F177A
:102740008CE291E00E942A18CE018B5A9F4F0E9482
:102750006B11FE01EB5AFF4F80819181A281B38101
:1027600087349105A105B10568F081E064E040E09F
:102770000E9441088CE291E00E942A1881E00E94A8
:102780008F17E2CFFE01EB5AFF4F80819181A2812A
:10279000B38186349105A105B105B0F680E00E94B1
:1027A0008F178CED95E00E942A18CE01875A9F4F13
:1027B0000E946B11FE01EF5AFF4F80E090E0AAEFFC
:1027C000B3E480839183A283B3838E01035B1F4FA5
:1027D000FE01EF5AFF4F608171818281938120E079
:1027E00030E04AEF54E40E941F02DC01CB01F80103
:1027F00080839183A283B383FE01E35BFF4F6081FB
:1028000071818281938120E030E040E85FE30E94A3
:102810002504882344F4FE01E55BFF4F81E090E04E
:102820009183808364C0FE01E35BFF4F608171810F
:102830008281938120E03FEF4FE757E40E94C50378
:1028400018160CF043C0FE01EF5AFF4F60817181F2
:102850008281938120E030E040E251E40E941F0237
:10286000DC01CB018E01055B1F4FBC01CD010E9435
:102870004900DC01CB01F801918380831FC0FE0178
:10288000E75BFF4F88EC90E091838083FE01E75B7C
:10289000FF4F808191810197F1F7FE01E75BFF4FC8
:1028A00091838083DE01A55BBF4FFE01E55BFF4F97
:1028B00080819181019711969C938E93FE01E55B37
:1028C000FF4F808191810097D1F627C08E01055B73
:1028D0001F4FFE01E35BFF4F608171818281938115
:1028E0000E944900DC01CB01F80191838083DE0165
:1028F000A95BBF4FFE01E55BFF4F808191818D9306
:102900009C93FE01E95BFF4F808191810197F1F774
:10291000FE01E95BFF4F9183808382E390E00E9498
:102920002A18CE01835A9F4F0E946B11FE01ED5B66
:10293000FF4F80E090E0AAEFB3E480839183A2830D
:10294000B3838E01015C1F4FFE01ED5BFF4F608181
:1029500071818281938120E030E04AEF54E40E944B
:102960001F02DC01CB01F80180839183A283B38332
:10297000FE01FF96608171818281938120E030E0C9
:1029800040E85FE30E94250488232CF481E090E076
:102990009EAF8DAF46C0FE01FF966081718182813E
:1029A000938120E03FEF4FE757E40E94C5031816DC
:1029B00064F5FE01ED5BFF4F60817181828193813F
:1029C00020E030E040E251E40E941F02DC01CB0134
:1029D000BC01CD010E944900DC01CB019EAF8DAF4F
:1029E0000FC088EC90E09CAF8BAF8BAD9CAD019796
:1029F000F1F79CAF8BAF8DAD9EAD01979EAF8DAFC4
:102A00008DAD9EAD009769F716C0FE01FF966081FF
:102A10007181828193810E944900DC01CB019EAFCC
:102A20008DAF8DAD9EAD9AAF89AF89AD9AAD01974F
:102A3000F1F79AAF89AF8CE291E00E942A18FE016B
:102A4000E35AFF4F80819181A281B3818734910540
:102A5000A105B10568F4FE01E75AFF4F808191811D
:102A6000A281B38187349105A105B10508F49AC10B
:102A700082E00E948F1780E090E0A8ECB2E48DAB7A
:102A80009EABAFABB8AF6DA97EA98FA998AD20E082
:102A900030E04AEF54E40E941F02DC01CB0189AB15
:102AA0009AABABABBCAB69A97AA98BA99CA920E076
:102AB00030E040E85FE30E94250488232CF481E0A5
:102AC00090E098AB8FA73FC069A97AA98BA99CA970
:102AD00020E03FEF4FE757E40E94C50318164CF57E
:102AE0006DA97EA98FA998AD20E030E040E251E4C5
:102AF0000E941F02DC01CB01BC01CD010E944900F4
:102B0000DC01CB0198AB8FA70FC088EC90E09EA7AB
:102B10008DA78DA59EA50197F1F79EA78DA78FA5DF
:102B200098A9019798AB8FA78FA598A9009769F7E7
:102B300014C069A97AA98BA99CA90E944900DC014B
:102B4000CB0198AB8FA78FA598A99CA78BA78BA526
:102B50009CA50197F1F79CA78BA780E00E948F1797
:102B6000FE01E35AFF4F2081318142815381FE01F2
:102B7000E75AFF4F80819181A281B3818217930729
:102B8000A407B50708F079C083E00E948F1780E0A2
:102B900090E0A8ECB2E48FA398A7A9A7BAA76FA169
:102BA00078A589A59AA520E030E04AEF54E40E9478
:102BB0001F02DC01CB018BA39CA3ADA3BEA36BA121
:102BC0007CA18DA19EA120E030E040E85FE30E945F
:102BD000250488232CF481E090E09AA389A33FC0C8
:102BE0006BA17CA18DA19EA120E03FEF4FE757E4B0
:102BF0000E94C50318164CF56FA178A589A59AA562
:102C000020E030E040E251E40E941F02DC01CB01F1
:102C1000BC01CD010E944900DC01CB019AA389A32C
:102C20000FC088EC90E098A38F8F8F8D98A10197AB
:102C3000F1F798A38F8F89A19AA101979AA389A3ED
:102C400089A19AA1009769F714C06BA17CA18DA1FD
:102C50009EA10E944900DC01CB019AA389A389A10E
:102C60009AA19E8F8D8F8D8D9E8D0197F1F79E8FEE
:102C70008D8F80E00E948F1767CDFE01E75AFF4FCE
:102C80002081318142815381FE01E35AFF4F8081CF
:102C90009181A281B38182179307A407B50708F039
:102CA0007DCD84E00E948F1780E090E0A8ECB2E434
:102CB000898F9A8FAB8FBC8F698D7A8D8B8D9C8D10
:102CC00020E030E04AEF54E40E941F02DC01CB0117
:102CD0008D8B9E8BAF8BB88F6D897E898F89988DF8
:102CE00020E030E040E85FE30E94250488232CF4D4
:102CF00081E090E09C8B8B8B3FC06D897E898F89B2
:102D0000988D20E03FEF4FE757E40E94C503181667
:102D10004CF5698D7A8D8B8D9C8D20E030E040E202
:102D200051E40E941F02DC01CB01BC01CD010E94D5
:102D30004900DC01CB019C8B8B8B0FC088EC90E0B1
:102D40009A8B898B89899A890197F1F79A8B898B5C
:102D50008B899C8901979C8B8B8B8B899C89009795
:102D600069F714C06D897E898F89988D0E9449000A
:102D7000DC01CB019C8B8B8B8B899C89988B8F87FB
:102D80008F8598890197F1F7988B8F8780E00E9453
:102D90008F179E012F593F4F84E062E0A9010E94E6
:102DA0004909D2CC8CE291E00E942A1882E00E946C
:102DB0008F1780E090E0A8ECB2E48B879C87AD870A
:102DC000BE876B857C858D859E8520E030E04AEF4F
:102DD00054E40E941F02DC01CB018F839887A987EE
:102DE000BA876F81788589859A8520E030E040E850
:102DF0005FE30E94250488232CF481E090E09E8309
:102E00008D833FC06F81788589859A8520E03FEF6B
:102E10004FE757E40E94C50318164CF56B857C8577
:102E20008D859E8520E030E040E251E40E941F0243
:102E3000DC01CB01BC01CD010E944900DC01CB01CA
:102E40009E838D830FC088EC90E09C838B838B8165
:102E50009C810197F1F79C838B838D819E810197E3
:102E60009E838D838D819E81009769F714C06F8149
:102E7000788589859A850E944900DC01CB019E8373
:102E80008D838D819E819A83898389819A8101971F
:102E9000F1F79A83898380E00E948F177FCCDF93BC
:102EA000CF93CDB7DEB70E945C0D80E060E00E945A
:102EB000340B81E697E160E00E940C0BCF91DF912B
:102EC0000895DF93CF930F92CDB7DEB784E062E031
:102ED0009E012F5F3F4FA9010E94490914C080E065
:102EE0000E948F178CE291E00E942A1881E064E032
:102EF00041E00E94410884E062E09E012F5F3F4F65
:102F0000A9010E9449098981813049F381E064E087
:102F100040E00E9441080F90CF91DF910895DF9328
:102F2000CF9300D00F92CDB7DEB789838981282F48
:102F300030E03B832A838A819B818230910589F12D
:102F40002A813B812330310554F48A819B8100978B
:102F500099F02A813B8121303105C1F175C08A8108
:102F60009B818330910509F45BC02A813B81243029
:102F7000310509F440C068C081E063E040E00E9490
:102F8000410881E061E040E00E94410881E060E0AA
:102F900040E00E94410881E062E040E00E94410878
:102FA00053C081E060E041E00E94410881E063E0BD
:102FB00040E00E94410881E061E040E00E94410859
:102FC00081E062E041E00E9441083EC081E062E0B1
:102FD00040E00E94410881E061E041E00E94410838
:102FE00081E060E040E00E94410881E063E041E070
:102FF0000E94410829C081E063E041E00E9441084D
:1030000081E061E040E00E94410881E060E041E051
:103010000E94410881E062E040E00E94410814C043
:1030200081E063E040E00E94410881E061E041E02E
:103030000E94410881E060E040E00E94410881E098
:1030400062E041E00E9441080F900F900F90CF91F5
:10305000DF910895DF93CF93CDB7DEB7E3970FB637
:10306000F894DEBF0FBECDBF9BAB8AAB19AA9DC142
:1030700083E060E041E00E9441088AA99BA9CC015D
:10308000A0E0B0E0BC01CD010E94A904DC01CB01AD
:103090008DA79EA7AFA7B8AB6DA57EA58FA598A954
:1030A0002BEA3AEA4AE250E40E941F02DC01CB011B
:1030B00089A79AA7ABA7BCA769A57AA58BA59CA54C
:1030C00020E030E040E85FE30E94250488231CF400
:1030D00081E088A791C069A57AA58BA59CA520E071
:1030E00030E04FE753E40E94C50318160CF07BC094
:1030F0006DA57EA58FA598A920E030E04AE754E4AD
:103100000E941903DC01CB018CA39DA3AEA3BFA336
:103110006CA17DA18EA19FA120E030E04AEF54E494
:103120000E941F02DC01CB0188A399A3AAA3BBA321
:1031300068A179A18AA19BA120E030E040E85FE38B
:103140000E94250488232CF481E090E09F8F8E8FCD
:103150003FC068A179A18AA19BA120E03FEF4FE782
:1031600057E40E94C50318164CF56CA17DA18EA1F1
:103170009FA120E030E040E251E40E941F02DC0108
:10318000CB01BC01CD010E944900DC01CB019F8F26
:103190008E8F0FC088EC90E09D8F8C8F8C8D9D8DD5
:1031A0000197F1F79D8F8C8F8E8D9F8D01979F8F4B
:1031B0008E8F8E8D9F8D009769F724C068A179A1AD
:1031C0008AA19BA10E944900DC01CB019F8F8E8FB9
:1031D0008E8D9F8D9B8F8A8F8A8D9B8D0197F1F7A6
:1031E0009B8F8A8F0FC069A57AA58BA59CA50E948D
:1031F0004900DC01CB0188A788A5898F898D8A9534
:10320000F1F7898F83E060E040E00E94410820E20E
:103210003EE48AA99BA9A901481B590BCA01CC010C
:10322000A0E0B0E0BC01CD010E94A904DC01CB010B
:103230008D8B9E8BAF8BB88F6D897E898F89988D92
:103240002BEA3AEA4AE250E40E941F02DC01CB0179
:10325000898B9A8BAB8BBC8B69897A898B899C898A
:1032600020E030E040E85FE30E94250488231CF45E
:1032700081E0888B91C069897A898B899C8920E05B
:1032800030E04FE753E40E94C50318160CF07BC0F2
:103290006D897E898F89988D20E030E04AE754E47B
:1032A0000E941903DC01CB018C879D87AE87BF8705
:1032B0006C857D858E859F8520E030E04AEF54E463
:1032C0000E941F02DC01CB0188879987AA87BB87F0
:1032D000688579858A859B8520E030E040E85FE35A
:1032E0000E94250488232CF481E090E09F838E8344
:1032F0003FC0688579858A859B8520E03FEF4FE751
:1033000057E40E94C50318164CF56C857D858E85A3
:103310009F8520E030E040E251E40E941F02DC0182
:10332000CB01BC01CD010E944900DC01CB019F8390
:103330008E830FC088EC90E09D838C838C819D816F
:103340000197F1F79D838C838E819F8101979F83E5
:103350008E838E819F81009769F724C06885798567
:103360008A859B850E944900DC01CB019F838E8367
:103370008E819F819B838A838A819B810197F1F74C
:103380009B838A830FC069897A898B899C890E9473
:103390004900DC01CB01888B8889898389818A95E2
:1033A000F1F7898389A98F5F89AB89A9853008F4F2
:1033B0005FCEE3960FB6F894DEBF0FBECDBFCF91C0
:1033C000DF910895629FD001739FF001829FE00D0D
:1033D000F11D649FE00DF11D929FF00D839FF00D94
:1033E000749FF00D659FF00D9927729FB00DE11D40
:1033F000F91F639FB00DE11DF91FBD01CF0111241D
:103400000895A1E21A2EAA1BBB1BFD010DC0AA1F25
:10341000BB1FEE1FFF1FA217B307E407F50720F03D
:10342000A21BB30BE40BF50B661F771F881F991FB8
:103430001A9469F760957095809590959B01AC0101
:10344000BD01CF0108952F923F924F925F926F92EC
:103450007F928F929F92AF92BF92CF92DF92EF9224
:10346000FF920F931F93CF93DF93CDB7DEB7CA1BA5
:10347000DB0B0FB6F894DEBF0FBECDBF09942A88D0
:10348000398848885F846E847D848C849B84AA8478
:10349000B984C884DF80EE80FD800C811B81AA8105
:1034A000B981CE0FD11D0FB6F894DEBF0FBECDBFD0
:0834B000ED010895F894FFCF2F
:1034B80000000000000000000001020203030303F3
:1034C80004040404040404040505050505050505AC
:1034D800050505050505050506060606060606068C
:1034E8000606060606060606060606060606060674
:1034F800060606060606060607070707070707075C
:103508000707070707070707070707070707070743
:103518000707070707070707070707070707070733
:103528000707070707070707070707070707070723
:10353800070707070707070708080808080808080B
:1035480008080808080808080808080808080808F3
:1035580008080808080808080808080808080808E3
:1035680008080808080808080808080808080808D3
:1035780008080808080808080808080808080808C3
:1035880008080808080808080808080808080808B3
:1035980008080808080808080808080808080808A3
:1035A8000808080808080808080808080808080893
:0835B8000808080808080808CB
:00000001FF
